:0600000002006B0201F496
:03000B0002049458
:030013000202479F
:01001B0032B2
:0300230002015780
:03002B00020CB212
:01003300329A
:01003B003292
:030043000201189F
:01004B003282
:030053000201A304
:01005B003272
:03006300020CB0DC
:0300660002029AF9
:02006900E4733E
:0D006B007581271202A8E58260030200667D
:100078007917E94400601B7A019012DE78DC75A0DC
:1000880000E493F2A308B8000205A0D9F4DAF275E7
:02009800A0FFC7
:06009A00E478FFF6D8FD3A
:1000A0007800E84400600A799475A000E4F309D868
:1000B000FC7848E84400600C7901900094E4F0A3D7
:0400C000D8FCD9FA95
:0600C40075109A7511028F
:0E00CA007808E4F608F608F608F6780C7600DA
:0200D800C20262
:0200DA00C2045E
:0200DC00C2055B
:0300DE00020066B7
:1000E2009000947401F07582110202AC9000957434
:1000F20001F07582111203F49003E8E4F5F01205A1
:1001020051900095E4F07582111203F49003E8E433
:05011200F5F0020551AB
:10011800C021C0E0C0F0C082C083C007C006C005CF
:10012800C004C003C002C001C000C0D075D0001216
:100138000B69D0D0D000D001D002D003D004D005B4
:10014800D006D007D083D082D0F0D0E0D02132C002
:1001580021C0E0C0F0C082C083C007C006C005C08F
:1001680004C003C002C001C000C0D075D0003098E0
:1001780005120FC2C298309905120FF8C299D0D053
:10018800D000D001D002D003D004D005D006D007CB
:10019800D083D082D0F0D0E0D02132C021C0E0C0DE
:1001A800F0C082C083C007C006C005C004C003C039
:1001B80002C001C000C0D075D000E592540FFFBF47
:1001C80002028008BF040812103C8003121072D08B
:1001D800D0D000D001D002D003D004D005D006D0B2
:1001E80007D083D082D0F0D0E0D02132C021C0E047
:1001F800C0F0C082C083C007C006C005C004C003E9
:10020800C002C001C000C0D075D0009000E7E0FE79
:10021800A3E0FFC007C0068E828F83120069D00654
:10022800D007D0D0D000D001D002D003D004D00560
:10023800D006D007D083D082D0F0D0E0D02132C011
:1002480021C0E0C0F0C082C083C007C006C005C09E
:1002580004C003C002C001C000C0D075D000900027
:10026800E9E0FEA3E0FFC007C0068E828F8312007C
:1002780069D006D007D0D0D000D001D002D003D0AA
:1002880004D005D006D007D083D082D0F0D0E0D0FB
:10029800213212063D1200E21200EE120D7E80F8A5
:0402A8007582002239
:1002AC00E582FF9011B193FEEF90117593FF7001F1
:1002BC0022900094E0FD704EBF010C53C6FEEEF48C
:1002CC00FC52C5EC52C422BF020FEE42B953C6FD1C
:1002DC00EEF4FC52BBEC52BA22BF030C53C6FBEE3D
:1002EC00F4FC52BDEC52BC22BF040C53C6F7EEF426
:1002FC00FC52BFEC52BE22BF0502800122EEF4FC80
:10030C0052C3EC52C222BD0246BF010B53C6FEEED5
:10031C0042C5EEF452C422BF020EEE42B953C6FDE2
:10032C00EE42BBEEF452BA22BF030B53C6FBEE42B5
:10033C00BDEEF452BC22BF040B53C6F7EE42BFEE27
:10034C00F452BE22BF0539EE42C3EEF452C222BDB6
:10035C00012EBF010753C6FEEE42C422BF02075353
:10036C00C6FDEE42BA22BF030753C6FBEE42BC22C7
:10037C00BF040753C6F7EE42BE22BF0503EE42C2CE
:10038C002222E582FF90113993FEEF9011B193FD7B
:10039C00EF90117593FF7003F58222EE600D8E8243
:1003AC00C007C00512038DD005D0077E00EF24F9DD
:1003BC00402AEF2F9003C473802280168008800A95
:1003CC00800C80128014AE908012AEA0800EAEB065
:1003DC00800AAE808006AEC18002AEC7ED5E6004BE
:1003EC007582012275820022E582FF90113993FEFD
:1003FC00EF9011B193FDEF90117593FFEE600D8EA0
:10040C0082C007C00512038DD005D007A2AFE4331C
:10041C00FEC2AFEF24FA406AEF2F90042A73806279
:10042C00803E8006801680268048900095E07007FC
:10043C00EDF4FF5290804BED42908046900095E099
:10044C007007EDF4FF52A08039ED42A0803490008B
:10045C0095E07007EDF4FF52B08027ED42B080229A
:10046C00900095E07007EDF4FF52808015ED42800E
:10047C008010900095E07007EDF4FF52C08003ED02
:08048C0042C0EE6002D2AF2273
:10049400C0D075D00808B8000D09B900090ABA001F
:1004A400050BBB00010CD0D032A2AFC2AFA808A983
:1004B40009AA0AAB0BAC8A8588F092AF30F51274A6
:1004C400012C600D08B8000909B900050ABA000139
:1004D4000BC3EC9406FCECC313FC75F07DE8A4F8A4
:1004E400ADF075F07DE9A42DF9E435F0FD75F07DEE
:1004F400EAA42DFAE435F0FD75F07DEBA42DFB7D27
:1005040000EC28F582E93DF583EA3DF5F0EB3D2268
:10051400A2AFC2AFA808A909AA0AAB0BAC0C92AF50
:1005240075F020E8A4A8F075F020E9A428F582A8C5
:10053400F075F020EAA428F583A8F075F020EBA468
:1005440028F9A8F075F020ECA42889F022858212FD
:1005540085831385F014F5151204AD858216858301
:100564001785F018F519E512451345144515700162
:1005740022A812A913AA14AB1585161A85171B8570
:10058400181C85191DE8494A4B60DBC003C002C032
:1005940001C0001204ADAC82AD83AEF0FFD000D038
:1005A40001D002D003ECC3951AFCED951BFDEE952A
:1005B4001CFEEF951DFFC3EC94E8ED9403EE94004C
:1005C400EF940040A118B8FF0919B9FF051ABAFF42
:1005D400011B881289138A148B1574E8251AF51ADD
:1005E4007403351BF51BE4351CF51CE4351DF51DA2
:1005F400851A16851B17851C18851D198087AE82E0
:10060400AF83C374019EE49F40022200C374029E20
:10061400FE74009FFF00BE0005BF00020022000020
:100624000000000000000000000000000000000EB8
:10063400BE00EB0FBF00ED002275A15575A1AA7491
:10064400E055B3440CF5B375A1009013881206026B
:10065400120C39120C63120C5275DD0075D300753F
:10066400D500759E5D759D0074F055894402F58929
:0F06740053C9EF758C06C28DD2A9D28CD2AF229A
:10068400AFD1BF08028003020AAD900007E0FE7FED
:1006940000900006E0FD7C004FF522EC4EF5237F30
:1006A40000900001E0F524900000E0FE54606053E7
:1006B400900000E0FE5306607D00BE2005BD0002F0
:1006C400800BBE4039BD00367FFF020AAF7420B5EF
:1006D4002403020AAF7421B5240280077422B524CE
:1006E40018800C120D01AD82AE838D07020AAFC0D3
:1006F40007120D30D007020AAF7FFF020AAF7FFF57
:10070400020AAFE52424F45003020AA9E524240BC9
:1007140083F582E524241083F583E4738BB9A979E6
:10072400A98838A995B0AFAF0A080A090A08070AC8
:1007340008080A0A900003E0FEBE0102800DBE0212
:1007440002801DBE0302802D020818752629752714
:100754001290123BE493FD740193FE8D0702081A74
:1007640075263D752712901288E493FD740193FE5B
:100774008D0702081A900002E0701575268A752705
:100784001290128EE493FD740193FE8D0702081AF1
:10079400900002E0FEBE01147526CE752712901259
:1007A400DCE493FD740193FE8D07806A900002E0FF
:1007B400FEBE021475269E7527129012B4E493FDB2
:1007C400740193FE8D07804E900002E0FEBE031478
:1007D40075269075271290129CE493FD740193FE84
:1007E4008D078032900002E0FEBE04147526B675B3
:1007F40027129012CCE493FD740193FE8D078016AA
:1008040075269075271290129CE493FD740193FE53
:100814008D0780027FFFBFFF03020AAF8F057E00B2
:10082400C3ED9522EE952350048D228E23AD22AE86
:1008340023C3ED9408EE9400920040067B087C00EC
:100844008004AB22AC238B077C00C3EC9F50198C33
:10085400027B00EC2526F582E43527F583E493F941
:100864008A828B83F00C80E28F037C00EDC39BFDB6
:10087400EE9CFE8D228E23EF2526F526E43527F502
:1008840027020AAF900002E0FE8E22752300020ABE
:10089400AF900000E525F0AD22AE23C3ED9401EE48
:1008A40094005003020AAF7F01020AAF900002E0F5
:1008B400F525020AAF900000E0541F702F9000034A
:1008C400E0FD7E00900002E0FC7B004206EB420566
:1008D400BE0114BD0011901244E493FE30E50302FE
:1008E4000AAF7FFF020AAF7FFF020AAF900000E069
:1008F400FE53061F7D00BE0277BD0074900004E025
:10090400FEBE0102805FBE02028049BE0302803344
:10091400BE0402801DBE81028040BE8202802ABEC7
:1009240083028014BE844474BC55DE4402F5DE02A6
:100934000AAF53DE73020AAF74BC55D64402F5D62F
:10094400020AAF53D673020AAF74BC55D44402F5FD
:10095400D4020AAF53D473020AAF74BC55D2440212
:10096400F5D2020AAF53D273020AAF7FFF020AAF75
:100974007FFF020AAF900000E0541F702F90000325
:10098400E0FD7E00900002E0FC7B004206EB4205A5
:10099400BE0114BD0011901244E493FE30E503023D
:1009A4000AAF7FFF020AAF7FFF020AAF900000E0A8
:1009B400FE53061F7D00BE0205BD00028003020A2D
:1009C40087900003E0FD7E00900002E0FC7B004283
:1009D40006EB4205EE4D6003020A83900005E0FD3C
:1009E4007E00900004E0FC7B004206EB4205BE0161
:1009F40006BD0003020A77BE0205BD00028060BE88
:100A04000305BD00028044BE0405BD00028028BE6B
:100A14008105BD00028052BE8205BD00028036BE43
:100A24008305BD0002801ABE8451BD004E74BF55BB
:100A3400DE4403F5DE8074747F55DE440CF5DE80FD
:100A44006A74BF55D64403F5D68060747F55D64486
:100A54000CF5D6805674BF55D44403F5D4804C7439
:100A64007F55D4440CF5D4804274BF55D24403F569
:100A7400D28038747F55D2440CF5D27FFF802C7F0E
:100A8400FF80287FFF8024900000E4F0900001F0B4
:100A9400AD22AE23C3ED9402EE940040047F0280A5
:100AA4000AAF2280067FFF80027FFFBFFF07752405
:100AB400FF75DCCF22EF24F740068FDD75DCC02202
:100AC40075DD0075DCC0227405B52402805D7406F2
:100AD400B52466AE22AF23C3EE9408EF94009201CE
:100AE40040067C087D008004AC22AD237D00C3ED6C
:100AF4009C50198D027B00ED2526F582E43527F5FF
:100B040083E493F98A828B83F00D80E28C037D0069
:100B1400EEC39BFEEF9DFF8E228F23EC2526F52648
:100B2400E43527F5278CDD63DC4022E5E35480FFC0
:100B3400E5224FF5E375DC022275DD0075DC022247
:100B44007420B5240D30DE10120CBC75DD0085DC7C
:100B5400DC2275DD0043DC022275D30074FC55D21F
:100B64004402F5D22220D903020C14E5D9540FFF14
:100B7400ADD95305307E00BD0005BE0002801CBD0A
:100B84001005BE00028036BD2005BE00028043BDB4
:100B94003006BE0003020BFA020C12EF24FB5003D2
:100BA400020C12EF2F900BAD7380088061800980D6
:100BB4005D805B120B448056120F198051EF24FBA9
:100BC400404CEF2F900BCC73804480428040803E99
:100BD400803CEF24FB4037EF2F900BE173800880BB
:100BE4000B800E80298027120ACB8022120B5D8095
:100BF4001D120F0B8018EF24FB4013EF2F900C05F0
:100C04007380088009800780058003120684C2D996
:100C140030D81575DC0275D21275D41275E300C292
:100C2400DAC2D9C2D8120CB410DA0122E5DA20E211
:100C34000375D8FF2275E20053E27F43E22975E38E
:100C44000053E2BF53E4FB75E42043E4012243E193
:100C54000443E10243E10143D81FD2EAD2AF227E2A
:100C6400007F00902448EFF07E007F00902449EE3E
:100C7400F07E0A7F0090244AEFF07E0A7F009024E1
:100C84004BEEF07E147F0090244CEFF07E147F0036
:100C940090244DEEF0902447740CF075D21275D464
:0B0CA400129024467440F075DC022220
:010CB0003211
:010CB200320F
:100CB4009000E3E4F0C202227F00C3E5D1940792DE
:100CC4000340067D077E008004ADD17E008F037C47
:100CD40000C3EB9DEC64808EF063F08095F0501CB3
:100CE400EF24DCFDE43400FEEF2400F582E434005C
:100CF400F583E0FC8D828E83F00F80BE227F008F0F
:100D0400057E00C3ED9407EE9400501CEF2400FD13
:100D1400E43400FEEF24DCF582E43400F583E0FCE7
:100D24008D828E83F00F80D790000722900002E01E
:100D3400FF9000E5F0E020E0309000DCE0FCA3E070
:100D4400FDA3E0FEA3E0FFBCB01FBD041CBE001960
:100D5400BF001675E200C2AF90C35012060290C3E2
:100D64005012060212F40080FE22751E009000E567
:100D7400E06003751E01851E82222002149000E6A5
:100D8400E0FFE0600C8FD553D4FCD2029000E6E47F
:100D9400F022AF829000E5E0605E7D007E003002CC
:100DA400240DBD00010E900005C007C006C0051249
:100DB4000602D005D006D007C3ED9450EE94C3408C
:100DC400DD758200229000E6E0FEBE400050207DEA
:100DD4000074402EFEE43DFDEE2414F582ED340053
:100DE400F583EFF09000E6E02401F075820122C063
:100DF40007120D7ED00780A275820022AFF0AE8369
:100E0400E582900098F0EEA3F0EFA3F09000E5E007
:100E14007003020ED3900096E0FEA3E0FFC3E49EAD
:100E240074808FF063F08095F04003020ED37E004F
:100E34007F003002200EBE00010F900005C007C0E5
:100E440006120602D006D007C3EE9450EF94C340B6
:100E5400E175820022900098E0FDA3E0FEA3E0FF8C
:100E6400900096E0FBA3E0FCC3E49B74808CF063E9
:100E7400F08095F0509F9000E6E0FABA40005049A7
:100E84008A017A00744029F9E43AFAE92414F9EA67
:100E94003400FA8D828E838FF0120FA6F8A3AD82F0
:100EA400AE83900098EDF0EEA3F0EFA3F089828A70
:100EB40083E8F09000E6E02401F01BBBFF011C90E6
:100EC4000096EBF0ECA3F0809F120D7E020E1975D4
:100ED4008200229000E3E0F582229000E3E07003B8
:100EE400F582229000E4E02414F582E43400F583D2
:100EF400E0FF9000E4E004F09000E3E014F0E07020
:100F04000353D4F38F822275D50074FC55D4440264
:100F1400F5D4C2022230DE199000E3E5D1F090004E
:100F2400E4E4F09000E3E0600874F355D44408F579
:020F3400D422C5
:100F360022AF82BF02005036EF75F002A424E7F517
:100F460082740035F0F583E51EF0E51FA3F0BF00BF
:100F5600028005BF0118800B90009BE024FF928859
:100F6600D2A82290009BE0FF24FF928AD2AA22AF49
:100F760082BF02005028BF00028005BF010880041E
:100F8600C2A88002C2AAEF75F002A424E7FE74008C
:0F0F960035F0FF8E828F837436F0740FA3F02234
:100FA60020F71430F6148883A88220F507E6A88374
:0C0FB60075830022E280F7E49322E02221
:100FC2009000EBE0FF7E008F828E83A3751E108E51
:100FD2001F121103AE829000ECE0FFEEB507012272
:100FE2009000EBE0249CF582E43400F583E599F06F
:100FF2009000EBEEF0223004409000EDE0FF900014
:10100200EEE0FEEFB50605A204C204229000EEE077
:1010120024ACF582E43400F583E0F5999000EEE02B
:10102200FF7E008F828E83A3751E108E1F12110306
:0A103200AE82AF839000EEEEF022D4
:10103C009000EFE0FF7E008F828E83A3751E108ED2
:10104C001F121103AE829000F0E0FFEEB5070122F3
:10105C009000EFE024BCF582E43400F583E59AF0CF
:10106C009000EFEEF0223005409000F1E0FF900090
:10107C00F2E0FEEFB50605A205C205229000F2E0F3
:10108C0024CCF582E43400F583E0F59A9000F2E08C
:10109C00FF7E008F828E83A3751E108E1F1211038C
:0A10AC00AE82AF839000F2EEF02256
:1010B600E51E451F60467A01E51E25E0F51EE51F83
:1010C600334012F51FE582951EE583951F40030AFE
:1010D60080E6C3E51F13F51FE51E13F51EC3E58263
:1010E600951EF5F0E583951F4005F58385F082C3CF
:1010F600E51F13F51FE51E13F51EDAE122C2D5E53D
:101106008330E70DD2D5E4C39582F582E49583F565
:1011160083E51F30E70BE4C3951EF51EE4951FF526
:101126001F1210B630D50BE4C39582F582E4958381
:03113600F583221C
:1011390000000000000000000000000000000000A6
:101149000000000000000000010200000000000093
:10115900000000000000000000000003000400007F
:101169000000000000000000000000000101010172
:101179000101010100000202020202020202000052
:101189000303030303030303000004040404040426
:10119900040400000505050505050505000006060A
:1011A9000606060606060000010204081020408013
:1011B9000000010204081020408000000102040818
:1011C9001020408000000102040810204080000027
:1011D90001020408102040800000010204081020C8
:1011E90040800000FFFFFFFFFFFFFFFFFFFF00013F
:1011F900020304050607FFFFFFFFFFFFFFFFFFFFD5
:10120900FFFFFFFFFFFFFFFFFFFFFFFFFFFFFFFFE5
:10121900FFFFFFFFFFFFFFFFFFFFFFFFFFFFFFFFD5
:1012290012011001EF020108091250C50101010262
:101239000301120009024B000201008064080B003F
:10124900020202010409040000010202010405244A
:1012590000100105240100000424020205240600EF
:10126900010705810308004009040100020A000082
:101279000407050202400000070582024000004BF6
:10128900000403090404000C034300480035003539
:101299000078000C0016034300480035003500783B
:1012A900006400750069006E006F001600160343A4
:1012B900004400430020005300650072006900618A
:1012C900006C0016000E0344006500710069006E91
:0512D9000067000E009B
:0B12DE0000E10000000008000000001C
:0412E900360F360F77
:0412ED0000000000FD
:0412F10000000000F9
:00000001FF
