:0600000002006B0201EF9B
:03000B000204CA22
:03001300020242A4
:01001B0032B2
:0300230002015186
:03002B00020C7252
:01003300329A
:01003B003292
:03004300020112A5
:01004B003282
:0300530002019D0A
:01005B003272
:03006300020C701C
:03006600020295FE
:02006900E4733E
:0D006B00758126121074E5826003020066A4
:100078007919E94400601B7A019012F778DF75A0BE
:1000880000E493F2A308B8000205A0D9F4DAF275E7
:02009800A0FFC7
:06009A00E478FFF6D8FD3A
:1000A0007800E84400600A799475A000E4F309D868
:1000B000FC784BE84400600C7901900094E4F0A3D4
:0400C000D8FCD9FA95
:0E00C4007808E4F608F608F608F6780C7600E0
:0200D200C20268
:0200D400C20464
:0200D600C20561
:0300D800020066BD
:1000DC009000947401F07582160202A89000957439
:1000EC0001F07582161204139003E8E4F5F0120582
:1000FC0087900095E4F07582161204139003E8E4DF
:05010C00F5F00205877B
:10011200C021C0E0C0F0C082C083C007C006C005D5
:10012200C004C003C002C001C000C0D075D000121C
:100132000B49D0D0D000D001D002D003D004D005DA
:10014200D006D007D083D082D0F0D0E0D02132C008
:1001520021C0E0C0F0C082C083C007C006C005C095
:1001620004C003C002C001C000C0D075D0003098E6
:1001720005120F58C298309905120F98C299D0D023
:10018200D000D001D002D003D004D005D006D007D1
:10019200D083D082D0F0D0E0D02132C021C0E0C0E4
:1001A200F0C082C083C007C006C005C004C003C03F
:1001B20002C001C000C0D075D000E5BF30E0061219
:1001C2000FE675BF01E5BF30E10612102675BF02CA
:1001D200D0D0D000D001D002D003D004D005D006B8
:1001E200D007D083D082D0F0D0E0D02132C021C05D
:1001F200E0C0F0C082C083C007C006C005C004C012
:1002020003C002C001C000C0D075D0009000ECE075
:10021200FEA3E0FFC007C0068E828F83120069D062
:1002220006D007D0D0D000D001D002D003D004D065
:1002320005D006D007D083D082D0F0D0E0D02132D2
:10024200C021C0E0C0F0C082C083C007C006C005A4
:10025200C004C003C002C001C000C0D075D000906D
:1002620000EEE0FEA3E0FFC007C0068E828F83127D
:100272000069D006D007D0D0D000D001D002D00380
:10028200D004D005D006D007D083D082D0F0D0E001
:10029200D021321206731200DC1200E8120D3580F2
:0502A200F87582002246
:1002A800E582FF9011DD93FEEF9011A193FF70019D
:1002B80022900094E0FD703FBF0209EEF4FC5292D8
:1002C800EC529322BF0409EEF4FC5296EC529722AA
:1002D800BF0109EEF4FC52C4EC52C522BF0309EE7B
:1002E800F4FC5294EC529522BF0502800122EEF4F0
:1002F800FC52C2EC52C322BD0235BF0207EE429245
:10030800EE429322BF0407EE4296EE429722BF01C7
:1003180007EE42C4EE42C522BF0307EE4294EE4206
:100328009522BF0502800122EE42C2EE42C322BDE1
:100338000137BF0208EEF45292EE429322BF04083E
:10034800EEF45296EE429722BF0108EEF452C4EE44
:1003580042C522BF0308EEF45294EE429522BF052F
:1003680042EEF452C2EE42C322BD0337BF0208EE8A
:100378004292EEF4529322BF0408EE4296EEF452F3
:100388009722BF0108EE42C4EEF452C522BF03080B
:10039800EE4294EEF4529522BF0508EE42C2EEF406
:1003A800FE52C32222E582FF90116593FEEF901161
:1003B800DD93FDEF9011A193FF7003F58222EE60AB
:1003C8000D8E82C007C0051203ACD005D0077E0091
:1003D800EF24F9402AEF2F9003E3738022801680E0
:1003E80008800A800C80128014AE908012AEA08023
:1003F8000EAEB0800AAE808006AEC08002AEABED15
:100408005E60047582012275820022E582FF9011E8
:100418006593FEEF9011DD93FDEF9011A193FFEE30
:10042800600D8E82C007C0051203ACD005D007A2AC
:10043800AFE433FEC2AFEF24F950030204C4EF2F38
:1004480090044C7380768040800880188028804A09
:10045800805A900095E07007EDF4FF5290805DEDB2
:1004680042908058900095E07007EDF4FF52A0800C
:100478004BED42A08046900095E07007EDF4FF52E6
:10048800B08039ED42B08034900095E07007EDF40B
:10049800FF52808027ED42808022900095E070070F
:1004A800EDF4FF52C08015ED42C08010900095E039
:1004B8007007EDF4FF52AB8003ED42ABEE6002D261
:0204C800AF2261
:1004CA00C0D075D00808B8000D09B900090ABA00E9
:1004DA00050BBB00010CD0D032A2AFC2AFA808A94D
:1004EA0009AA0AAB0BAC8A8588F092AF30F5127470
:1004FA00012C600D08B8000909B900050ABA000103
:10050A000BC3EC9406FCECC313FC75F07DE8A4F86D
:10051A00ADF075F07DE9A42DF9E435F0FD75F07DB7
:10052A00EAA42DFAE435F0FD75F07DEBA42DFB7DF0
:10053A0000EC28F582E93DF583EA3DF5F0EB3D2232
:10054A00A2AFC2AFA808A909AA0AAB0BAC0C92AF1A
:10055A0075F020E8A4A8F075F020E9A428F582A88F
:10056A00F075F020EAA428F583A8F075F020EBA432
:10057A0028F9A8F075F020ECA42889F022858210C9
:10058A0085831185F012F5131204E385821485839D
:10059A001585F016F517E51045114512451370013A
:1005AA0022A810A911AA12AB13851418851519854A
:1005BA00161A85171BE8494A4B60DBC003C002C004
:1005CA0001C0001204E3AC82AD83AEF0FFD000D0CC
:1005DA0001D002D003ECC39518FCED9519FDEE95F8
:1005EA001AFEEF951BFFC3EC94E8ED9403EE94001A
:1005FA00EF940040A118B8FF0919B9FF051ABAFF0C
:10060A00011B881089118A128B1374E82518F518B2
:10061A0074033519F519E4351AF51AE4351BF51B77
:10062A00851814851915851A16851B178087AE82B9
:10063A00AF83C374019EE49F40022200C374029EEA
:10064A00FE74009FFF00BE0005BF000200220000EA
:10065A000000000000000000000000000000000E82
:10066A00BE00EB0FBF00ED002275A15575A1AA745B
:10067A00F855B94405F5B975A100901388120638E2
:10068A00120C1E120C48120C3775DD0075D300755A
:10069A00D500759E5D759D0074F055894402F589F3
:0F06AA0053C9EF758C06C28DD2A9D28CD2AF2264
:1006BA00AFDBBF08028003020A8D900007E0FE7FCD
:1006CA0000900006E0FD7C004FF522EC4EF5237FFA
:1006DA0000900001E0F524900000E0FE54606053B1
:1006EA00900000E0FE5306607D00BE2005BD0002BA
:1006FA00800BBE4039BD00367FFF020A8F7420B5D9
:10070A002403020A8F7421B5240280077422B524B7
:10071A0018800C120CC1AD82AE838D07020A8FC0FD
:10072A0007120CF0D007020A8F7FFF020A8F7FFFA1
:10073A00020A8FE52424F45003020A89E524240BD3
:10074A0083F582E524241083F583E4736B99895930
:10075A0089636E89708D8F8F0A080A090A08070A49
:10076A0008080A0A900003E0FEBE0102800ABE02DF
:10077A0002800FBE037380147525557526127F12E9
:10078A0080697525677526127F46805F900002E0B2
:10079A0070087525AD7526128044900002E0FEBEF1
:1007AA0001087525E97526128034900002E0FEBE24
:1007BA0002087525BD7526128024900002E0FEBE4F
:1007CA0003087525B17526128014900002E0FEBE5A
:1007DA0004087525D375261280047FFF800D8525B0
:1007EA0082852683E493FF80027FFFBFFF03020A0C
:1007FA008F8F057E00C3ED9522EE952350048D223E
:10080A008E23AD22AE23C3ED9408EE9400920040ED
:10081A00067B087C008004AB22AC238B077C00C3D8
:10082A00EC9F50198C027B00EC2525F582E43526D5
:10083A00F583E493F98A828B83F00C80E28F037C40
:10084A0000EDC39BFDEE9CFE8D228E23EF2525F540
:10085A0025E43526F526020A8F900002E0FE8E2254
:10086A00752300020A8F900096E0900000F0AD22F6
:10087A00AE23C3ED9401EE94005003020A8F7F0168
:10088A00020A8F900002E0FE900096F0020A8F9012
:10089A000000E0541F702F900003E0FD7E009000DE
:1008AA0002E0FC7B004206EB4205BE0114BD0011CA
:1008BA0090126EE493FE30E503020A8F7FFF020A6C
:1008CA008F7FFF020A8F900000E0FE53061F7D0013
:1008DA00BE0277BD0074900004E0FEBE0102805F94
:1008EA00BE02028049BE03028033BE0402801DBEDE
:1008FA0081028040BE8202802ABE83028014BE84A6
:10090A004474BC55DE4402F5DE020A8F53DE7302DC
:10091A000A8F74BC55D64402F5D6020A8F53D67391
:10092A00020A8F74BC55D44402F5D4020A8F53D4F8
:10093A0073020A8F74BC55D24402F5D2020A8F534D
:10094A00D273020A8F7FFF020A8F7FFF020A8F90FB
:10095A000000E0541F702F900003E0FD7E0090001D
:10096A0002E0FC7B004206EB4205BE0114BD001109
:10097A0090126EE493FE30E503020A8F7FFF020AAB
:10098A008F7FFF020A8F900000E0FE53061F7D0052
:10099A00BE0205BD00028003020A67900003E0FD63
:1009AA007E00900002E0FC7B004206EB4205EE4D21
:1009BA006003020A63900005E0FD7E00900004E0F7
:1009CA00FC7B004206EB4205BE0106BD0003020A9B
:1009DA0057BE0205BD00028060BE0305BD0002804D
:1009EA0044BE0405BD00028028BE8105BD00028008
:1009FA0052BE8205BD00028036BE8305BD0002805C
:100A0A001ABE8451BD004E74BF55DE4403F5DE8024
:100A1A0074747F55DE440CF5DE806A74BF55D64483
:100A2A0003F5D68060747F55D6440CF5D68056748B
:100A3A00BF55D44403F5D4804C747F55D4440CF587
:100A4A00D4804274BF55D24403F5D28038747F559E
:100A5A00D2440CF5D27FFF802C7FFF80287FFF8055
:100A6A0024900000E4F0900001F0AD22AE23C3ED23
:100A7A009402EE940040047F02800AAF2280067F2F
:100A8A00FF80027FFFBFFF077524FF75DCCF22EFCF
:100A9A0024F740068FDD75DCC02275DD0075DCC0E9
:100AAA00227405B52402805D7406B52466AE22AFB1
:100ABA0023C3EE9408EF9400920140067C087D005F
:100ACA008004AC22AD237D00C3ED9C50198D027BBE
:100ADA0000ED2525F582E43526F583E493F98A822B
:100AEA008B83F00D80E28C037D00EEC39BFEEF9DAD
:100AFA00FF8E228F23EC2525F525E43526F5268C55
:100B0A00DD63DC4022E5E35480FFE5224FF5E3751F
:100B1A00DC022275DD0075DC02227420B5240D305A
:100B2A00DE10120C7C75DD0085DCDC2275DD0043ED
:100B3A00DC022275D30074FC55D24402F5D222207D
:100B4A00D903020BF4E5D9540FFFADD95305307E12
:100B5A0000BD0005BE0002801CBD1005BE0002805B
:100B6A0036BD2005BE00028043BD3006BE0003022A
:100B7A000BDA020BF2EF24FB5003020BF2EF2F9079
:100B8A000B8D73800880618009805D805B120B2465
:100B9A008056120EA78051EF24FB404CEF2F900B8A
:100BAA00AC73804480428040803E803CEF24FB400E
:100BBA0037EF2F900BC1738008800B800E8029803D
:100BCA0027120AAB8022120B3D801D120E99801843
:100BDA00EF24FB4013EF2F900BE573800880098008
:100BEA0007800580031206BAC2D930D81A75DC020A
:100BFA0075D21275D41275E300C2DAC2D9C2D8907E
:100C0A000096E4F0120C7410DA0122E5DA20E2030D
:100C1A0075D8FF2275E20053E27F43E22975E300AB
:100C2A0053E2BF53D1FB75D18043D1012243E10482
:100C3A0043E10243E10143D81FD2EAD2AF227E0048
:100C4A007F008EEC8FED7E0A7F008EEE8FEF7E1492
:100C5A007F008EE48FE575EB0C75D21275D4127590
:060C6A00EA4075DC0222E5
:010C70003251
:010C7200324F
:100C74009000E8E4F0C202227F00C3E5DB9407920F
:100C84000340067D077E008004ADDB7E008F037C7D
:100C940000C3EB9DEC64808EF063F08095F0501CF3
:100CA400EF24E1FDE43400FEEF2400F582E4340097
:100CB400F583E0FC8D828E83F00F80BE227F008F4F
:100CC400057E00C3ED9407EE9400501CEF2400FD54
:100CD400E43400FEEF24E1F582E43400F583E0FC23
:100CE4008D828E83F00F80D790000722900002E05F
:100CF4009000EAF0E0227E007F003002200EBE0069
:100D0400010F900005C007C006120638D006D007B0
:100D1400C3EE9450EF94C340E175820022758201C2
:100D240022751D009000EAE06003751D01851D8297
:100D3400222002259000EBE0FF601E8FD553D4FCE7
:100D4400D202BF400F120CFAE582600875D5005339
:100D5400D4FCD2029000EBE4F022AF829000EAE0EF
:100D64006041C007120CFAE582D0077003F58222B5
:100D74009000EBE0FEBE400050207D0074402EFE4B
:100D8400E43DFDEE2414F582ED3400F583EFF0909C
:100D940000EBE02401F075820122C007120D35D06A
:100DA4000780BF75820022AFF0AE83E58290009980
:100DB400F0EEA3F0EFA3F09000EAE07003020E61FE
:100DC400900097E0FEA3E0FFC3E49E74808FF0637D
:100DD400F08095F04003020E61C007C006120CFAC1
:100DE400E582D006D0077003F58222900099E0FBDB
:100DF400A3E0FCA3E0FDC3E49E74808FF063F08065
:100E040095F050BC9000EBE0FABA400050498A01DA
:100E14007A00744029F9E43AFAE92414F9EA34002E
:100E2400FA8B828C838DF0120F3CF8A3AB82AC83D7
:100E3400900099EBF0ECA3F0EDA3F089828A83E8AB
:100E4400F09000EBE02401F01EBEFF011F9000971C
:100E5400EEF0EFA3F0809F120D35020DC4758200F1
:100E6400229000E8E0F582229000E8E07003F58229
:100E7400229000E9E02414F582E43400F583E0FFD5
:100E84009000E9E004F09000E8E014F0E07003530F
:100E9400D4F38F822275D50074FC55D44402F5D462
:100EA400C2022230DE199000E8E5DBF09000E9E4AC
:100EB400F09000E8E0600874F355D44408F5D422B7
:100EC40022AF82BF0200503EEF75F002A424ECFD75
:100ED400740035F0FE90009CE0FBA3E0FC8D828E54
:100EE40083EBF0ECA3F0BF00028005BF0118800B78
:100EF40090009EE024FF9288D2A82290009EE0FFFA
:100F040024FF928AD2AA22AF82BF02005028BF00D7
:100F1400028005BF01088004C2A88002C2AAEF753E
:100F2400F002A424ECFE740035F0FF8E828F8374EB
:070F3400C4F0740EA3F022CB
:100F3C0020F71430F6148883A88220F507E6A883DE
:0C0F4C0075830022E280F7E49322E0228B
:100F58009000F0E0FF7E000FBF00010E7410C0E0AB
:100F6800E4C0E08F828E83121078AE8215811581DD
:100F78009000F1E0FFEEB50701229000F0E0249F19
:100F8800F582E43400F583E599F09000F0EEF02264
:100F980030044A9000F2E0FF9000F3E0FEEFB5065F
:100FA80005A204C204229000F3E024AFF582E434E1
:100FB80000F583E0F5999000F3E0FF7E000FBF0095
:100FC800010E7410C0E0E4C0E08F828E83121078A6
:0E0FD800AE82AF83158115819000F3EEF022FA
:100FE6009000F4E0FF7E000FBF00010E7410C0E019
:100FF600E4C0E08F828E83121078AE82158115814F
:101006009000F5E0FFEEB50701229000F4E024BF62
:10101600F582E43400F583E5BDF09000F4EEF022AD
:1010260030054A9000F6E0FF9000F7E0FEEFB506C7
:1010360005A205C205229000F7E024CFF582E4342C
:1010460000F583E0F5BD9000F7E0FF7E000FBF00DE
:10105600010E7410C0E0E4C0E08F828E8312107817
:0E106600AE82AF83158115819000F7EEF02267
:1010740075820022C01C85811CAE82E583FF33E4A7
:1010840033FD6009C3E49EFBE49FFC80048E038F60
:1010940004E51C24FCF808E630E70FE51C24FCF802
:1010A400C3E496FE08E496FF800AE51C24FCF88657
:1010B40006088607C005C006C0078B828C83121001
:1010C400E6AE82AF8315811581D005ED600DC3E4D2
:1010D4009EFCE49FFD8C828D8380048E828F83D05E
:1010E4001C22C01C85811CAE82AF837D007C00E580
:1010F4001C24FCF808E6235401FB702FE51C24FC97
:10110400F8E626F608E633F6E51C24FCF8C3EE966A
:10111400EF08965011E51C24FCF808E618C313C622
:1011240013C608F680050C8C0580C4E51C24FCF865
:10113400C3EE96EF0896400DE51C24FCF8EEC3962A
:10114400FEEF0896FFE51C24FCF808E618C313C656
:1011540013C608F68D041DEC70D18E828F83D01CCB
:011164002268
:10116500000000000000000000000000000000007A
:10117500000000000000000000000000000000006A
:10118500000000000000000000000000000000005A
:101195000000000000000000000000000101010146
:1011A5000101010100000202020202020202000026
:1011B50003030303030303030000040404040404FA
:1011C50004040000050505050505050500000606DE
:1011D50006060606060600000102040810204080E7
:1011E50000000102040810204080000001020408EC
:1011F50010204080000001020408102040800000FB
:10120500010204081020408000000102040810209B
:1012150040800000FFFFFFFFFFFFFFFFFFFFFFFF15
:10122500FFFFFFFFFFFFFFFFFFFFFFFFFFFFFFFFC9
:10123500FFFFFFFFFFFFFFFFFFFFFFFFFFFFFFFFB9
:10124500FFFFFFFFFFFFFFFFFFFFFFFFFFFFFFFFA9
:1012550012011001EF020108091250C50101010236
:101265000301090246000201008064080B00020226
:101275000201040904000001020201040524001012
:101285000104240202052406000107058103080064
:101295004009040100020A0000040705020240009B
:1012A5000007058202400000040309040C03430003
:1012B5004800350035007800160343004800350026
:1012C500350078006400750069006E006F00160334
:1012D500430044004300200053006500720069008C
:1012E50061006C000E0344006500710069006E002A
:0212F500670090
:0212F70095025E
:0B12F90000E100000000080000000001
:04130400C40EC40E41
:0413080000000000E1
:04130C0000000000DD
:00000001FF
